:040000000CEF00F011
:10000800FACF03F0FBCF04F0E9CF05F0BAED15F015
:1000180051EF17F04AAE22D02D0E0001D06F4A5092
:100028007F0B0008800F0101436F43C117F0186A66
:10003800000E1A6E0A0E196E27EC15F01750300FC5
:100048000001D16F43C1FBF00001FC6B000E000101
:10005800FE6F0A0EFD6F31EC14F01CD02B0E000160
:10006800D06F4AC017F04BC018F0000E1A6E0A0E77
:10007800196E27EC15F01750300F0001D16F4AC0E8
:10008800FBF04BC0FCF0000E0001FE6F0A0EFD6F86
:1000980031EC14F00001FB51300F0001D26F00D099
:1000A8004DAE34D02D0E0001D46F7F0E4C140101DB
:1000B8003F6F000E4D140101406F01013F1F401FAB
:1000C8003F4B402B800E01013F250101416F000E7F
:1000D800010140210101426F41C117F042C118F0EE
:1000E800000E1A6E0A0E196E27EC15F01750300F15
:1000F8000001D56F41C1FBF042C1FCF0000E0001C8
:10010800FE6F0A0EFD6F31EC14F01CD02B0E0001AF
:10011800D46F4CC017F04DC018F0000E1A6E0A0EBE
:10012800196E27EC15F01750300F0001D56F4CC031
:10013800FBF04DC0FCF0000E0001FE6F0A0EFD6FD3
:1001480031EC14F00001FB51300F0001D66F00D0E4
:1001580060380F0B300F0101346F61380F0B300F0F
:100168000101376F61500F0B300F0101386F633891
:100178000F0B300F01013A6F63500F0B300F010165
:100188003B6F62380F0B300F00018B6F62500F0B03
:10019800300F00018C6F5D380F0B300F00018E6F30
:1001A8005D500F0B300F00018F6F6D380F0B300F44
:1001B8000001916F6D500F0B300F0001926F5A388C
:1001C8000F0B300F0001826F5A500F0B300F0001D8
:1001D800836F5B380F0B300F0001856F5B500F0B7F
:1001E800300F0001866F5C380F0B300F0001886FED
:1001F8005C500F0B300F0001896F0001E105000111
:10020800E211D8A40BD0C40E116E000E126EEA0EC5
:10021800136EFF0E146EA1EC1BF00BD0C40E116E02
:10022800000E126EEE0E136EFF0E146EA1EC1BF094
:1002380000D06EC017F0186A000E1A6E640E196EA0
:1002480027EC15F01750300F0001B56F6EC017F08E
:10025800186A000E1A6E640E196E27EC15F0175006
:10026800300F0001B66F6EC017F0186A000E1A6ED4
:10027800640E196E27EC15F01750300F0001B76F98
:100288005404D8A40BD0CC0E116E000E126EEA0ED8
:10029800136EFF0E146EA1EC1BF00BD0CC0E116E7A
:1002A800000E126EEE0E136EFF0E146EA1EC1BF014
:1002B80000D080BA02D0310E01D0300E0001D86FC4
:1002C80000D05EC017F0186A000E1A6E640E196E20
:1002D80027EC15F01750300F0001C86F000E1A6E8A
:1002E8000A0E196E5EC017F0186A27EC15F017C0D1
:1002F800FBF018C0FCF0000E0001FE6F0A0EFD6F47
:1003080031EC14F00001FB51300F0001C96F5EC0E1
:10031800FBF00001FC6B000E0001FE6F0A0EFD6F82
:1003280031EC14F00001FB51300F0001CA6FDEC040
:100338003BF0DFC03CF0E0C03DF080EC10F03B50FB
:10034800300F0001AF6F000E206E200E216E410E9F
:10035800226EDEC01DF0DFC01EF0E0C01FF099EC79
:100368000EF01DC03BF01EC03CF01FC03DF080ECFD
:1003780010F03BC0FBF03CC0FCF0000E0001FE6F2B
:100388000A0EFD6F31EC14F00001FB51300F000133
:10039800B16F000E206EC80E216E420E226EDEC0B6
:1003A8001DF0DFC01EF0E0C01FF099EC0EF01DC07C
:1003B8003BF01EC03CF01FC03DF080EC10F03BC08D
:1003C800FBF03CC0FCF0000E0001FE6F0A0EFD6F52
:1003D80031EC14F00001FB51300F0001B26F50C036
:1003E80017F051C018F0030E1A6EE80E196E27ECBC
:1003F80015F01750300F0001BA6F000E1A6E640E18
:10040800196E50C017F051C018F027EC15F017C03E
:10041800FBF018C0FCF0000E0001FE6F0A0EFD6F25
:1004280031EC14F00001FB51300F0001BB6F000EDE
:100438001A6E0A0E196E50C017F051C018F027EC4A
:1004480015F017C0FBF018C0FCF0000E0001FE6F9D
:100458000A0EFD6F31EC14F00001FB51300F000162
:10046800BC6F50C0FBF051C0FCF0000E0001FE6FE5
:100478000A0EFD6F31EC14F00001FB51300F000142
:10048800BD6F170E396ED00E3A6E000E3B6EFF0E22
:100498003D6EE00E3C6E000E3F6E000E3E6E020E8C
:1004A800406E010E64EC11F0170E396ED40E3A6EE0
:1004B800000E3B6EFF0E3D6EE00E3C6E000E3F6E72
:1004C800000E3E6E020E406E460E64EC11F0340EC5
:1004D800396E340E3A6E010E3B6E070E3D6E3C6867
:1004E800000E3F6E000E3E6E020E406E0F0E64EC64
:1004F80011F0520E396E8B0E3A6E000E3B6E070EDF
:100508003D6EE00E3C6E000E3F6E000E3E6E020E1B
:10051800406E0F0E64EC11F06E0E396E820E3A6E5C
:10052800000E3B6E070E3D6E3C68000E3F6E000EDF
:100538003E6E010E406E0A0E64EC11F06E0E396EBE
:10054800C40E3A6E000E3B6E070E3D6E3C68000E00
:100558003F6E000E3E6E010E406E5F0E64EC11F0B1
:10056800820E396EB50E3A6E000E3B6EF80E3D6E79
:10057800000E3C6E000E3F6E000E3E6E010E406E89
:10058800230E64EC11F0820E396ECC0E3A6E000E1A
:100598003B6EF80E3D6E000E3C6E000E3F6E000E78
:1005A8003E6E010E406E5F0E64EC11F0960E396ED1
:1005B800C80E3A6E000E3B6E070E3D6EE00E3C6EA6
:1005C800000E3F6E000E3E6E010E406E0A0E64EC89
:1005D80011F0960E396ED80E3A6E000E3B6E070E6D
:1005E8003D6EE00E3C6E000E3F6E000E3E6E010E3C
:1005F800406E230E64EC11F0960E396EAF0E3A6E13
:10060800000E3B6E070E3D6EE00E3C6E000E3F6E18
:10061800000E3E6E010E406E320E64EC11F0960E26
:10062800396EBA0E3A6E000E3B6E070E3D6EE00E46
:100638003C6E000E3F6E000E3E6E010E406E5D0E6B
:1006480064EC11F0120076EC1DF012EC1CF0000EB8
:10065800256E000E246EE2EC1CF052C011F053C05F
:1006680012F0E50E136EFE0E146EA1EC1BF0010ED7
:10067800396E52C03AF053C03BF0FF0E3D6E3C68F5
:10068800000E3F6E000E3E6E010E406E010E64ECD1
:1006980011F052C011F053C012F06F0E136EFF0E1E
:1006A800146EA1EC1BF00B0E396E52C03AF053C019
:1006B8003BF0F80E3D6E1F0E3C6E000E3F6E000EB6
:1006C8003E6E010E406E180E64EC11F0000E1D6EA9
:1006D800280E1C6E000E1F6E170E1E6E000E216E69
:1006E800020E206EFF0E236EE00E226E3EEC09F025
:1006F80052C011F053C012F0F60E136EFF0E146EB6
:10070800A1EC1BF0170E396E52C03AF053C03BF003
:10071800FF0E3D6EE00E3C6E000E3F6E000E3E6E0C
:10072800020E406E2D0E64EC11F052C011F053C051
:1007380012F0F00E136EFF0E146EA1EC1BF0000EFB
:100748001D6E6E0E1C6E000E1F6E170E1E6E000EB6
:10075800216E020E206EFF0E236EE00E226E3EEC1E
:1007680009F0170E396E52C03AF053C03BF0FF0E35
:100778003D6EE00E3C6E000E3F6E000E3E6E020EA9
:10078800406E730E64EC11F052C011F053C012F0B9
:10079800B10E136EFF0E146EA1EC1BF0280E396E0D
:1007A80052C03AF053C03BF0000E3D6E1F0E3C6E37
:1007B800000E3F6E000E3E6E010E406E320E64EC6F
:1007C80011F052C011F053C012F0E00E136EFF0E7C
:1007D800146EA1EC1BF0470E396E52C03AF053C0AC
:1007E8003BF0F80E3D6E000E3C6E000E3F6E000EA4
:1007F8003E6E010E406E320E64EC11F052C011F0E4
:1008080053C012F0AB0E136EFF0E146EA1EC1BF06A
:10081800640E396E52C03AF053C03BF0FF0E3D6E85
:10082800E00E3C6E000E3F6E000E3E6E010E406EF6
:10083800040E64EC11F052C011F053C012F0C00E57
:10084800136EFF0E146EA1EC1BF0640E396E52C0CD
:100858003AF053C03BF0FF0E3D6EE00E3C6E000ECA
:100868003F6E000E3E6E010E406E4D0E64EC11F0B0
:1008780052C011F053C012F07C0E136EFF0E146EAE
:10088800A1EC1BF0780E396E52C03AF053C03BF021
:10089800000E3D6E1F0E3C6E000E3F6E000E3E6E4B
:1008A800010E406E060E64EC11F052C011F053C0F8
:1008B80012F0D90E136EFF0E146EA1EC1BF0780E19
:1008C800396E52C03AF053C03BF0000E3D6E1F0E19
:1008D8003C6E000E3F6E000E3E6E010E406E550ED1
:1008E80064EC11F052C011F053C012F0F90E136EFF
:1008F800FF0E146EA1EC1BF08C0E396E52C03AF04C
:1009080053C03BF0FF0E3D6E3C68000E3F6E000E7C
:100918003E6E010E406E0C0E64EC11F052C011F0E8
:1009280053C012F0FC0E136EFF0E146EA1EC1BF0F8
:100938008C0E396E52C03AF053C03BF0FF0E3D6E3C
:100948003C68000E3F6E000E3E6E010E406E210E9A
:1009580064EC11F052C011F053C012F0E50E136EA2
:10096800FF0E146EA1EC1BF08C0E396E52C03AF0DB
:1009780053C03BF0FF0E3D6E3C68000E3F6E000E0C
:100988003E6E010E406E320E64EC11F052C011F052
:1009980053C012F0F20E136EFF0E146EA1EC1BF092
:1009A8008C0E396E52C03AF053C03BF0FF0E3D6ECC
:1009B8003C68000E3F6E000E3E6E010E406E5F0EEC
:1009C80064EC11F012001F0E306E000E316E99D1DA
:1009D800250E3818D8B404D03850CCEC1DF091D17D
:1009E800000E376E000E366E000E356E05D035845B
:1009F8001D4A1E2A01D00BD01DC0F6FF1EC0F7FFEE
:100A08000800F550300AD8B4F2D701D0F5D71DC088
:100A1800F6FF1EC0F7FF0800F55084EC1CF0D8A0C4
:100A28003BD0000E376E000E366E00D036C011F087
:100A380037C012F0000E146E0A0E136E27EC1CF06D
:100A480011C036F012C037F0D00E2B6EFF0E2C6E90
:100A58001DC0F6FF1EC0F7FF0800F5502D6E2E6A68
:100A68002B502D262C502E222D5036262E50372234
:100A78001D4A1E2A1DC0F6FF1EC0F7FF0800F550CC
:100A880084EC1CF0D8A008D0D1D706D048D11BD010
:100A9800358E19D036D117D01DC0F6FF1EC0F7FF0E
:100AA8001D4A1E2A0800F5CF38F03850000AD8B47D
:100AB80036D1640AD8B407D00D0AD8B404D0110AC4
:100AC800D8B4E6D71ED135BE15D030C0D9FF31C055
:100AD800DAFFDECF33F0DDCF34F0020E3026000E21
:100AE800312234AE4ED0030E3512336C341ED8B0DA
:100AF800342A47D030C0D9FF31C0DAFFDECF33F017
:100B0800DDCF34F0020E3026000E31223AD0010E2D
:100B1800386E050E3818D8B43DD001D03BD03850C7
:100B2800020D720EF324F66EFE0EF420F76E090025
:100B3800F550335C0900F5503458D8A02BD001D0BB
:100B480029D0382AE6D726D0010E386E040E381878
:100B5800D8B420D001D01ED03850020D7C0EF3241A
:100B6800F66EFE0EF420F76E0900F550335C0900AE
:100B7800F5503458D8A00ED001D00CD0382AE6D77A
:100B880009D03550800B000AD8B4C1D7800AD8B430
:100B9800DBD700D036503710D8B40AD035C02BF088
:100BA800030E2B16D8B404D03606D8A0370600D0CA
:100BB800800E38BE7F0E2B6E3650385C3750800A58
:100BC8002B58D8B007D03850365E000E38BEFF0E0E
:100BD800375A05D0000E376E000E366E00D035A499
:100BE8001AD035C02BF0030E2B16D8B404D02D0E16
:100BF800CCEC1DF000D036503710D8B426D0300ECB
:100C0800CCEC1DF03606D8A0370636503710D8B4CD
:100C18001CD0F5D71AD036503710D8B40CD0200EC7
:100C2800CCEC1DF03606D8A0370636503710D8B4AD
:100C380002D0F5D700D035C02BF0030E2B16D8B450
:100C480004D02D0ECCEC1DF000D038C032F053D0BB
:100C580045D03250020D720EF324F66EFE0EF420CB
:100C6800F76E0900F5CF13F00A00F5CF14F033C082
:100C780011F034C012F0C8EC18F011C018F012C00E
:100C880019F0000E1B6E0A0E1A6E3DEC1AF0185081
:100C9800300F386E2CD033C011F034C012F03250FF
:100CA800020D7C0EF324F66EFE0EF420F76E09009A
:100CB800F5CF13F00A00F5CF14F0C8EC18F0115076
:100CC8000F0B2F6E2F50010D1F0EF324F66EFF0E23
:100CD800F420F76E0800F5CF38F009D03550800BB6
:100CE800000AD8B4B6D7800AD8B4D5D700D03850BF
:100CF800CCEC1DF000D032063228D8B402D0EED7A2
:100D080000D01DC0F6FF1EC0F7FF1D4A1E2A0800AE
:100D1800F5CF38F03850D8B402D05AD600D01200E7
:100D28009AEC18F027EC03F077EC19F017EC1AF0AE
:100D38000001806900D067EC18F063500001801949
:100D4800D8B49ED063C080F088EC1AF0FEC050F092
:100D5800FFC051F013EC17F0FBC0DEF0FCC0DFF071
:100D6800FDC0E0F06AEC1BF014C04AF015C04BF06F
:100D78004AAE1DD04AC048F14BC049F10101481F95
:100D8800491F484B492B800E01014827000E492373
:100D98007F0E01014817000E49170101481F491F1E
:100DA800484B492B48C14AF049C14BF000D04AC0D2
:100DB80011F04BC012F0000E146E090E136E27ECE2
:100DC8001CF011C017F012C018F0000E1A6E050EB4
:100DD800196E27EC15F0200E17244C6E000E182003
:100DE8004D6E840E1D6EFE0E1E6E60C01FF0206AD2
:100DF80061C021F0226A63C023F0246A62C025F032
:100E0800266A5DC027F0286A6DC029F02A6AE7ECD7
:100E180004F0D00E1D6EFE0E1E6E4AC01FF04BC0B1
:100E280020F04CC021F04DC022F0E7EC04F0A20EF7
:100E38001D6EFE0E1E6E80AA04D00101486B482B61
:100E480002D00101486B010148511F6E206A54C04D
:100E580021F0226AE7EC04F0F90E1D6EFE0E1E6EFC
:100E680050C01FF051C020F05EC021F0226AE7ECAC
:100E780004F0D2EC1BF0A7EC0BF00EEC00F000D065
:100E880049EC16F0E806D8A42CD0000E0001EC6F4F
:100E9800000EEB6F17D011EC1EF0AEEC12F021D063
:100EA80011EC1EF076EC13F01CD011EC1EF002ECE5
:100EB80016F017D011EC1EF095EC1CF012D014ECC3
:100EC8001EF00FD05F50000AD8B4E5D7010AD8B495
:100ED800E7D7030AD8B4E9D7070AD8B4EBD7EFD7CE
:100EE80000D00001EF05D8A404D0000E0001EF6F78
:100EF80000D00001F005D8A41ED7000E0001F06F45
:100F08001AD70CEF00F02E6E240E306E1E0E2F6EC8
:100F1800C2D02F50440F236E190E246E020E256E78
:100F2800000E276E000E266E3050020DF3500E0F85
:100F380063EC1AF0440E236E190E246E020E256E11
:100F4800000E276E000E266E3050020DF3500E0F65
:100F580063EC1AF0440E236E190E246E020E256EF1
:100F6800070E276E26680E0E63EC1AF0A8D0440E02
:100F7800236E190E246E020E256E000E276E000ECB
:100F8800266E0E0E63EC1AF0440E236E190E246EB4
:100F9800020E256E070E276E266830500E0F63EC82
:100FA8001AF08DD0440E236E190E246E020E256E93
:100FB800000E276E000E266E30500E0F63EC1AF0EE
:100FC800440E236E190E246E020E256E070E276E30
:100FD80026683050020DF3500E0F63EC1AF06FD0F4
:100FE800440E236E190E246E020E256E000E276E17
:100FF800000E266E3050020DF3500E0F63EC1AF0FF
:101008002F50440F236E190E246E020E256E070E04
:10101800276E26680E0E63EC1AF051D02F50440F3D
:10102800236E190E246E020E256E000E276E000E1A
:10103800266E0E0E63EC1AF02F50440F236E190E15
:10104800246E020E256E070E276E266830500E0F8E
:1010580063EC1AF034D02F50440F236E190E246E0F
:10106800020E256E000E276E000E266E30500E0FF3
:1010780063EC1AF02F50440F236E190E246E020EE3
:10108800256E070E276E26683050020DF3500E0F9E
:1010980063EC1AF014D02E50000AD8B43AD7010ADB
:1010A800D8B465D7030AD8B47DD7010AD8B498D77D
:1010B800070AD8B4B3D7010AD8B4CDD700D01200E4
:1010C8002E6E240E306E1E0E2F6EBFD0440E236E71
:1010D800190E246E020E256E000E276E000E266E67
:1010E80030500E0F63EC1AF0440E236E190E246E66
:1010F800020E256E070E276E26680E0E63EC1AF098
:10110800B8D0440E236E190E246E020E256E000E02
:10111800276E000E266E3050020DF3500E0F63EC52
:101128001AF0440E236E190E246E020E256E070E59
:10113800276E266830500E0F63EC1AF09AD0440ED2
:10114800236E190E246E020E256E000E276E000EF9
:10115800266E0E0E63EC1AF02F50440F236E190EF4
:10116800246E020E256E000E276E000E266E0E0EE1
:1011780063EC1AF0440E236E190E246E020E256ECF
:10118800070E276E26683050020DF3500E0F63ECE1
:101198001AF06FD02F50440F236E190E246E020ED2
:1011A800256E000E276E000E266E30500E0F63EC73
:1011B8001AF02F50440F236E190E246E020E256E5E
:1011C800070E276E26680E0E63EC1AF052D02F50C9
:1011D800440F236E190E246E020E256E000E276E24
:1011E800000E266E3050020DF3500E0F63EC1AF00D
:1011F8002F50440F236E190E246E020E256E070E13
:10120800276E266830500E0F63EC1AF032D0440E69
:10121800236E190E246E020E256E000E276E000E28
:10122800266E0E0E63EC1AF02F50440F236E190E23
:10123800246E020E256E070E276E26683050020DAA
:10124800F3500E0F63EC1AF014D02E50000AD8B4E5
:101258003DD7010AD8B455D7030AD8B470D7010AC4
:10126800D8B498D7070AD8B4B2D7010AD8B4CFD718
:1012780000D0120020C024F021C025F0241E251E15
:10128800244A252A010E24242A6E000E25202B6EBE
:10129800000E276E010E266E20C024F021C025F016
:1012A800D89024362536241E251E244A252A24C0F3
:1012B80028F025C029F0000E2D6E000E2C6E20C0DF
:1012C8002EF021C02FF01E502024186E22C019F0D5
:1012D80023C01AF01C50BAEC1BF0205000081E2442
:1012E800186E22C019F023C01AF01C50BAEC1BF07B
:1012F8001EC018F022C019F023C01AF01C50202478
:10130800BAEC1BF01EC018F022C019F023C01AF066
:10131800205000081C24BAEC1BF078D02BBE0BD050
:101328002E06D8A02F06020E2826000E29222850A5
:101338002A2629502B222C4A2D2A020E2626000E58
:10134800272226502A2627502B221E502E24186E7C
:1013580022C019F023C01AF01C502C24BAEC1BF040
:101368001E502E24186E22C019F023C01AF02C50DB
:1013780000081C24BAEC1BF02E5000081E24186E1E
:1013880022C019F023C01AF01C502C24BAEC1BF010
:101398002E5000081E24186E22C019F023C01AF01F
:1013A8002C5000081C24BAEC1BF01E502C24186E7C
:1013B80022C019F023C01AF01C502E24BAEC1BF0DE
:1013C8001E502C24186E22C019F023C01AF02E507B
:1013D80000081C24BAEC1BF02C5000081E24186EC0
:1013E80022C019F023C01AF01C502E24BAEC1BF0AE
:1013F8002C5000081E24186E22C019F023C01AF0C1
:101408002E5000081C24BAEC1BF000D02E502C5C87
:101418002D50800A246E2F50800A2458D8A07ED7D9
:10142800120068C017F0186A000E1A6E0A0E196EBC
:1014380027EC15F01750300F0001A66F68C0FBF0BD
:101448000001FC6B000E0001FE6F0A0EFD6F31EC0F
:1014580014F00001FB51300F0001A76F69C017F0AD
:10146800186A000E1A6E0A0E196E27EC15F017503E
:10147800300F0001A96F69C0FBF00001FC6B000E82
:101488000001FE6F0A0EFD6F31EC14F00001FB51F4
:10149800300F0001AA6F6BC017F0186A000E1A6EA1
:1014A8000A0E196E27EC15F01750300F0001AC6FBB
:1014B8006BC0FBF00001FC6B000E0001FE6F0A0E12
:1014C800FD6F31EC14F00001FB51300F0001AD6FDE
:1014D8006AC017F0186A000E1A6E0A0E196E27EC09
:1014E80015F01750300F00019D6F6AC0FBF0000126
:1014F800FC6B000E0001FE6F0A0EFD6F31EC14F05C
:101508000001FB51300F00019E6F67C017F0186A89
:10151800000E1A6E0A0E196E27EC15F01750300FD0
:101528000001A06F67C0FBF00001FC6B000E00011A
:10153800FE6F0A0EFD6F31EC14F00001FB51300F05
:101548000001A16F6CC017F0186A000E1A6E0A0E1F
:10155800196E27EC15F01750300F0001A36F6CC0FF
:10156800FBF00001FC6B000E0001FE6F0A0EFD6F20
:1015780031EC14F00001FB51300F0001A46F340E60
:10158800396EA60E3A6E000E3B6E070E3D6E3C6835
:10159800000E3F6E000E3E6E020E406E0F0E64ECA3
:1015A80011F0520E396E9D0E3A6E000E3B6E070E0C
:1015B8003D6EE00E3C6E000E3F6E000E3E6E020E5B
:1015C800406E0F0E64EC11F01200F2920001F4511B
:1015D800D8B4A6D0CE50CFCF01F0026A01C002F035
:1015E800016A01104E6E02504F6E000ECF6E000E53
:1015F800CE6E96D0000ECF6E000ECE6E9E90900EE0
:10160800CD6ECD80000E0001F66F000E0001DA6F7E
:10161800000EDB6F000EDC6F000EDD6F010E0001A7
:10162800F46F7CD08FD01D0E4E5C250E4F58D8B06D
:101638000AD0340E4E5C210E4F58D8A004D0020EAA
:101648000001F46F2BD000EC1EF028D027D07AD000
:10165800890E4E5C130E4F58D8B00AD0A00E4E5CBF
:101668000F0E4F58D8A004D0030E0001F46F56D0C7
:1016780000EC1EF053D052D065D0BD0E4E5C020E69
:101688004F58D8B008D0900E4E5C010E4F58D8A0D5
:1016980002D0040ED5D700EC1EF000D0F19C52D039
:1016A800090E4E5C070E4F58D8B035D0900E4E5CE0
:1016B800010E4F58D8A02FD0D8900001DA3500017C
:1016C800DA6F0001DB350001DB6F0001DC3500015A
:1016D800DC6F0001DD350001DD6FE90E4E5C030EA5
:1016E8004F58D8A008D0010E0001DA27000EDB23DE
:1016F800DC23DD2300D00001F62B1F0E0001F66568
:10170800B3D7000E0001EC6F010EEB6FF298000EDC
:101718000001F46FA9D700EC1EF000D0F18C12D0B4
:101728000001F451000AD8B465D7010AD8B47BD7B0
:10173800030AD8B48DD7010AD8B49FD7070AD8B4FA
:10174800AFD700D0120080BA06D0000E0001E46FB7
:10175800010EE36F00D00001E1050001E211D8A4F9
:101768000AD00001E5510001E611D8A404D0000E0A
:10177800236E000E1FD00001E1510001E211D8A430
:101788000AD00001E5050001E611D8A404D0000E36
:10179800236E010E0FD00001E1050001E211D8A46B
:1017A80071D00001E5050001E611D8A46BD0000E48
:1017B800236E020E226E66D0000E0001E66F010E47
:1017C800E56F73D0000E0001E66F000EE56F05ECC3
:1017D8001EF077EC19F0000E0001E46F000EE36FC5
:1017E800000E0001E86F000EE76F0001E7518BEC77
:1017F80017F05BD0000E116E600E126E400E136E65
:10180800DEC014F0DFC015F0E0C016F0DCEC14F018
:10181800D8B013D0000E0001E46F000EE36F77EC30
:1018280019F0000E0001E86F000EE76F0001E751A4
:101838008BEC17F005EC1EF038D00001E305000131
:10184800E411D8A41CD04EEC19F06DEC1DF0000189
:10185800E7518BEC17F00001E74BE82B0001E8BFDC
:1018680024D00001E85105E1080E0001E75DD8A089
:101878001CD0000E0001E86F000EE76F16D077EC61
:1018880019F013D022C020F023C021F02150000A03
:10189800D8A40BD02050000AD8B48ED7010AD8B4E7
:1018A80091D7030AD8B4A6D700D01200366E800E9E
:1018B8003660A6D09F0E2E6401D0A2D03450D8A492
:1018C80003D0010E346E00D01F0E2F6404D07E0E9C
:1018D8002F6403D000D03F0E2F6E000E386E040E1A
:1018E800386401D08DD0530E2F6015D0E00E2F2410
:1018F800116E126AFF0E1222000E146E050E136E80
:1019080027EC1CF038501126000E1222970E1124D5
:10191800F66EFC0E14D0AD0E2F24116E126AFF0E57
:101928001222000E146E050E136E27EC1CF03850B0
:101938001126000E1222960E1124F66EFD0E1220AC
:10194800F76E0800F5CF35F000D0000E376E060EA2
:10195800376401D053D035A023D03404D8A40CD098
:101968002E503724186E30C019F031C01AF0365096
:101978003824BAEC1BF03ED037503402F3502E24F2
:10198800236E34C024F034C025F030C026F031C0B6
:1019980027F038503402F350362463EC1AF02AD07A
:1019A8003050321804E131503318D8B423D03404FD
:1019B800D8A40CD02E503724186E32C019F033C07A
:1019C8001AF036503824BAEC1BF014D037503402D1
:1019D800F3502E24236E34C024F034C025F032C0D6
:1019E80026F033C027F038503402F350362463EC25
:1019F8001AF000D0372AD8903532A9D7382A6FD7AD
:101A08001200010EC4EC1DF0000E186E960E176E33
:101A1800A0EC19F0110EC4EC1DF0010E186EF40EB6
:101A2800176EA0EC19F0B10EC4EC1DF0010EBCEC61
:101A38001DF02C0EBCEC1DF02D0EBCEC1DF0B20EF2
:101A4800C4EC1DF0010EBCEC1DF02C0EBCEC1DF01E
:101A58002D0EBCEC1DF0B30EC4EC1DF0010EBCEC59
:101A68001DF02C0EBCEC1DF02D0EBCEC1DF0010E73
:101A7800BCEC1DF02C0EBCEC1DF02D0EBCEC1DF0CA
:101A8800B40EC4EC1DF0070EBCEC1DF0C00EC4EC87
:101A98001DF0A20EBCEC1DF0020EBCEC1DF0840E75
:101AA800BCEC1DF0C10EC4EC1DF0C50EBCEC1DF065
:101AB800C20EC4EC1DF00A0EBCEC1DF0000EBCEC0E
:101AC8001DF0C30EC4EC1DF08A0EBCEC1DF02A0EEE
:101AD800BCEC1DF0C40EC4EC1DF08A0EBCEC1DF06D
:101AE800EE0EBCEC1DF0C50EC4EC1DF00E0EBCECE9
:101AF8001DF0200EC4EC1DF0360EC4EC1DF0C80E0F
:101B0800BCEC1DF03A0EC4EC1DF0050EBCEC1DF04B
:101B18001200000E256E000E246EE2EC1CF052C07E
:101B280011F053C012F0E60E136EFE0E146EA1EC07
:101B38001BF0010E396E52C03AF053C03BF0FF0E55
:101B48003D6E3C68000E3F6E000E3E6E010E406E0C
:101B5800010E64EC11F052C011F053C012F0890E5E
:101B6800136EFF0E146EA1EC1BF0100E396E52C0EE
:101B78003AF053C03BF0F80E3D6E1F0E3C6E000E5F
:101B88003F6E000E3E6E020E406E040E64EC11F0C5
:101B980052C011F053C012F0B10E136EFF0E146E46
:101BA800A1EC1BF0280E396E52C03AF053C03BF03E
:101BB800000E3D6E1F0E3C6E000E3F6E000E3E6E18
:101BC800010E406E320E64EC11F0440E236E190EB5
:101BD800246E020E256E070E276E26680E0E63EC25
:101BE8001AF052C011F053C012F0E00E136EFF0E3F
:101BF800146EA1EC1BF0470E396E52C03AF053C078
:101C08003BF0F80E3D6E000E3C6E000E3F6E000E6F
:101C18003E6E010E406E320E64EC11F01200000EA2
:101C2800256E000E246EE2EC1CF052C011F053C079
:101C380012F00D0E136EFF0E146EA1EC1BF0010EC8
:101C4800396E52C03AF053C03BF0FF0E3D6E3C680F
:101C5800000E3F6E000E3E6E010E406E010E64ECEB
:101C680011F052C011F053C012F0C90E136EFF0EDE
:101C7800146EA1EC1BF00B0E396E52C03AF053C033
:101C88003BF0F80E3D6E1F0E3C6E000E3F6E000ED0
:101C98003E6E020E406E060E64EC11F052C011F05A
:101CA80053C012F0D10E136EFF0E146EA1EC1BF090
:101CB8001A0E396E52C03AF053C03BF0F80E3D6E22
:101CC8001F0E3C6E000E3F6E000E3E6E020E406E02
:101CD800060E64EC11F052C011F053C012F0B10EB0
:101CE800136EFF0E146EA1EC1BF0280E396E52C055
:101CF8003AF053C03BF0000E3D6E1F0E3C6E000ED6
:101D08003F6E000E3E6E010E406E320E64EC11F016
:101D1800440E236E190E246E020E256E070E276ED2
:101D280026680E0E63EC1AF012001FC023F0246A16
:101D3800256A1E34233601E324802350266E26505C
:101D4800D8A402D00ED06CD022C023F0246A256A11
:101D58002134233601E3248023502B6E2B50D8A442
:101D680007D0000E1D6E000E1E6E000E1F6E58D09E
:101D78002B507B0F26261FC02BF022502B1A800ECB
:101D88002B161E8E218EFF0E2016FF0E2116000E1A
:101D98002216000E276E000E286E000E296E070E02
:101DA8002A6E00D01DA007D02050272621502822B7
:101DB8002250292200D0D8901F321E321D32D890CE
:101DC8002036213622362A2EEDD700D0090E2A6E6B
:101DD80000D01DA007D020502726215028222250AD
:101DE800292200D0D8901F321E321D32D8902932B5
:101DF800283227322A2EEDD700D027C011F028C06C
:101E080012F029C013F026C014F02BC015F013EC03
:101E180013F011C01DF012C01EF013C01FF000D047
:101E28001200000E256E000E246EE2EC1CF052C06B
:101E380011F053C012F0E60E136EFE0E146EA1ECF4
:101E48001BF0010E396E52C03AF053C03BF0FF0E42
:101E58003D6E3C68000E3F6E000E3E6E010E406EF9
:101E6800010E64EC11F052C011F053C012F0950E3F
:101E7800136EFF0E146EA1EC1BF01A0E396E52C0D1
:101E88003AF053C03BF0FF0E3D6EE00E3C6E000E84
:101E98003F6E000E3E6E020E406E010E64EC11F0B5
:101EA80052C011F053C012F0B60E136EFF0E146E2E
:101EB800A1EC1BF0290E396E52C03AF053C03BF02A
:101EC800FF0E3D6EE00E3C6E000E3F6E000E3E6E45
:101ED800020E406E010E64EC11F052C011F053C0B6
:101EE80012F0300E136EFF0E146EA1EC1BF03C0EB8
:101EF800396E52C03AF053C03BF0070E3D6E3C6855
:101F0800000E3F6E000E3E6E010E406E0F0E64EC2A
:101F180011F01200E00EC4EC1DF0020EBCEC1DF036
:101F28001C0EBCEC1DF0070EBCEC1DF0120EBCEC38
:101F38001DF0370EBCEC1DF0320EBCEC1DF0290E66
:101F4800BCEC1DF02D0EBCEC1DF0290EBCEC1DF0F8
:101F5800250EBCEC1DF02B0EBCEC1DF0390EBCECB4
:101F68001DF0000EBCEC1DF0010EBCEC1DF0030EC4
:101F7800BCEC1DF0100EBCEC1DF0E10EC4EC1DF025
:101F8800030EBCEC1DF01D0EBCEC1DF0070EBCECE6
:101F98001DF0060EBCEC1DF02E0EBCEC1DF02C0E38
:101FA800BCEC1DF0290EBCEC1DF02D0EBCEC1DF098
:101FB8002E0EBCEC1DF02E0EBCEC1DF0370EBCEC4A
:101FC8001DF03F0EBCEC1DF0000EBCEC1DF0000E29
:101FD800BCEC1DF0020EBCEC1DF0100EBCEC1DF0AC
:101FE800130EC4EC1DF0000E186E0A0E176EA0EC4E
:101FF80019F0290EC4EC1DF0000E186E640E176E51
:10200800A0EC19F01200A00E1D6EFF0E1E6E64C02B
:102018001FF0206A65C021F0226A66C023F0246A96
:10202800E7EC04F064C017F0186A000E1A6E0A0E86
:10203800196E27EC15F01750300F0001946F64C02B
:10204800FBF00001FC6B000E0001FE6F0A0EFD6F35
:1020580031EC14F00001FB51300F0001956F65C0A1
:1020680017F0186A000E1A6E0A0E196E27EC15F092
:102078001750300F0001976F65C0FBF00001FC6B33
:10208800000E0001FE6F0A0EFD6F31EC14F0000126
:10209800FB51300F0001986F66C017F0186A000EE8
:1020A8001A6E0A0E196E27EC15F01750300F000142
:1020B8009A6F66C0FBF00001FC6B000E0001FE6F1A
:1020C8000A0EFD6F31EC14F00001FB51300F0001D6
:1020D8009B6F340E396E940E3A6E000E3B6E070EEF
:1020E8003D6E3C68000E3F6E000E3E6E020E406E66
:1020F8000F0E64EC11F012003DC03FF0406A416AD7
:102108003C343F3601E340803F50496E4950D8A4E3
:1021180002D039D063D0170E3F6E3BC040F03CC0B0
:1021280041F03DC042F03F28436E04D0D89042327F
:1021380041324032432EFAD74050446E3C8EFF0E57
:102148003B16FF0E3C16000E3D163B50456E3C50AC
:10215800466E3D50476E486A8E0E495E49AE10D0B5
:102168004950800A8F0FD8B003D00DD037D000D097
:10217800D8904832473246324532493EF9D719D0CD
:10218800170E496411D0000E3B6E000E3C6E000E17
:102198003D6E000E3E6E22D007D0D89045364636AA
:1021A80047364836490600D04950D8B402D0F5D74A
:1021B80000D04450D8B409D0481E471E461E456C6E
:1021C800000E46224722482200D045C03BF046C0B8
:1021D8003CF047C03DF048C03EF000D012002EC091
:1021E80032F0336A346A2D34323601E333803250A8
:1021F800396E3950D8A402D00ED061D031C032F037
:10220800336A346A3034323601E3338032503A6EFE
:102218003A50D8A407D0000E2C6E000E2D6E000E7A
:102228002E6E4DD0000E366E000E376E000E386ED4
:102238003A50890F395E2EC03AF031503A1A800E62
:102248003A162D8EFF0E2C16FF0E2D16000E2E168A
:10225800308EFF0E2F16FF0E3016000E3116180E98
:10226800356E00D0D8903636373638362F502C5C3D
:1022780030502D5831502E58D8A007D02F502C5EF2
:1022880030502D5A31502E5A3680D8902C362D3653
:102298002E36352EE7D700D036C011F037C012F0F1
:1022A80038C013F039C014F03AC015F013EC13F02D
:1022B80011C02CF012C02DF013C02EF000D0120067
:1022C800436E43C049F039C048F03AC011F03BC0F2
:1022D80012F0EFEC1AF011C044F012C045F0000EF5
:1022E800476E000E466E56D0000181510001D8B4E9
:1022F8002CD04050050D4950416E426AF35041269A
:10230800F450422242BE21D0425004E1810E415C89
:10231800D8A01BD0000E496E4050070DF35048243A
:10232800030F486EA00E486403D0A00E486E00D07C
:1023380046503A24D96E47503B20DA6E200EDE18FC
:10234800D8B425D002D023D000D048C02EF04650B3
:102358003A24D96E47503B20DA6EDF502F6E3CC0CE
:1023680030F03DC031F03EC032F03FC033F040C0E5
:1023780034F049505AEC0CF04050060DF350492403
:10238800496E800E496403D0800E496E00D0464ADB
:10239800472A00D04450465C45504758D8A0A4D797
:1023A8001200236E800E236069D09F0E186401D03E
:1023B80065D0FF0E1D6EFF0E1E6E195023C01FF054
:1023C800206A1F26000E20221D501F261E50202284
:1023D80020BE0AD0205004E1800E1F5CD8A004D093
:1023E80023500008800F196EFF0E1D6EFF0E1E6E23
:1023F8001A5018C01FF0206A1F26000E20221D50F8
:102408001F261E50202220BE0BD0205004E1A00E13
:102418001F5CD8A005D018500008A00F1A6E00D075
:1024280018C014F0235019241D6E1D04156E185081
:102438001A241E6E1E04166E235023EC19F01C502D
:10244800216E1BC022F0818C819A1AC018F0185096
:10245800D8B413D001D011D019C023F02350D8B468
:102468000AD001D008D0215059EC1DF0225059EC67
:102478001DF02306F3D71806EAD7818A1200010156
:10248800406F040ECB6E070ECA6E000E206E800ED3
:10249800216E400E226E010140514EEC1CF019C015
:1024A8001DF01AC01EF01BC01FF099EC0EF01DC0E5
:1024B8002CF01EC02DF01FC02EF0000E2F6EA00EA7
:1024C800306E410E316EF3EC10F02CC03DF12DC092
:1024D8003EF12EC03FF13DC13BF03EC13CF03FC153
:1024E8003DF080EC10F03BC041F13CC042F10101ED
:1024F80040510001FB6FFC6B010141510001FB5D84
:102508000001FC51800A0001FD6F01014251800A5F
:102518000001FD59D8B004D00101414B422B00D035
:1025280041C1FBF0030E0001FB170001FB39F00B62
:102538000C09BD6E41C1FBF042C1FCF00001FC3545
:10254800FC33FB330001FC35FC33FB330001FB514A
:10255800BE6E1200000E576E67EC18F06350FDEC6B
:102568001BF06B6E6150FDEC1BF0696E6050FDEC6A
:102578001BF0686E5D50FDEC1BF0676E6250FDEC61
:102588001BF06A6E6D50FDEC1BF06C6E8DEC0DF05F
:1025980015EC0AF0010E0001F26F3CD049EC16F080
:1025A800E806D8A437D0020E5F6431D0090E5F6008
:1025B8002ED011EC1EF0030E5F18D8A403D0FDEC4A
:1025C8001CF000D0040E5F18D8A403D009EC1DF04D
:1025D80000D0050E5F18D8A403D04FEC1DF000D032
:1025E800060E5F18D8A403D073EC1CF000D0070EB9
:1025F8005F18D8A403D072EC15F000D0080E5F184D
:10260800D8A403D0ACEC1DF000D05F6803D014EC64
:102618001EF000D00001F205D8B4C0D71200145043
:10262800D8B405D0115012101310D8A40ED0000E33
:10263800116E000E126E000E136E53D006D0142ABF
:10264800D89013321232113200D0000E1114166EC7
:10265800000E1214176EFE0E1314186E1650171073
:102668001810D8B40ED0EBD70CD0142A010E1126AE
:10267800000E1222000E1322D89013321232113299
:1026880000D0000E1114166E000E1214176EFF0EF5
:102698001314186E165017101810D8B408D0E5D7B0
:1026A80006D01406D89011361236133600D012BE52
:1026B80004D0020E1460F5D700D014B002D0129ED8
:1026C80000D0D8901432145013121550D8B402D038
:1026D800138E00D011C011F012C012F013C013F005
:1026E80000D01200000E566E010E0001F16F17ECBB
:1026F8001AF05C50FDEC1BF05C6E5B50FDEC1BF0BF
:102708005B6E5A50FDEC1BF05A6E5CC066F05BC005
:1027180065F05AC064F013EC0EF007EC10F03CD0F2
:1027280049EC16F0E806D8A437D0020E5F6431D021
:10273800090E5F602ED011EC1EF0030E5F18D8A4AE
:1027480003D015EC1DF000D0040E5F18D8A403D0F8
:1027580021EC1DF000D0050E5F18D8A403D02DEC95
:102768001DF000D0060E5F18D8A403D0F0EC19F0C5
:1027780000D0070E5F18D8A403D0C9EC19F000D018
:10278800080E5F18D8A403D0B4EC1DF000D05F6821
:1027980003D014EC1EF000D00001F105D8B4C0D766
:1027A8001200680E1A6E070E176E0E0E186E18C0FD
:1027B80014F01A5088EC1BF0196E1950010B196EA1
:1027C80019502509196E18C013F019C014F01A50C1
:1027D800A5EC1CF09AEC1DF01A501A240EEC1BF014
:1027E80017500EEC1BF044EC1DF0D8801A340EEC98
:1027F8001BF0010EACEC1AF05C6E010EACEC1AF09A
:102808005B6E010EACEC1AF05A6E000EACEC1AF0CE
:10281800596E5C507F0B5C6E5B507F0B5B6E5A5041
:102828007F0B5A6E59508009596E9AEC1DF01A5058
:102838001A240EEC1BF017500EEC1BF05C500EEC3B
:102848001BF05B500EEC1BF05A500EEC1BF059506D
:102858000EEC1BF091EC1DF01200000E01013E6F12
:102868000001FCAF09D00001FB6DFC1FD8B0FC2BA8
:10287800010E01013E6F00D00001FEAF06D000013D
:10288800FD6DFE1FD8B0FE2B00D00001FD510001E8
:10289800FE11D8B42BD0010E01013D6F07D0000105
:1028A800D890FD37FE3701013D2B00D00001FEBF57
:1028B80002D0F5D700D00001FD510001FB5D0001F9
:1028C800FE510001FC59D8A009D00001FD510001BA
:1028D800FB5F0001FE510001FC5B00D00001D890B5
:1028E800FE33FD3301013D2FE6D700D001013E51F3
:1028F8000101D8B406D00001FB6DFC1FD8B0FC2B39
:1029080000D0FBC0FBF0FCC0FCF000D01200680E49
:102918000101466F000E0101476F6B50FCEC17F088
:1029280001013F51636E6950FCEC17F001013F5102
:10293800616E6850FCEC17F001013F51606E010EAA
:102948000001F86F6750FCEC17F001013F515D6E14
:102958006A50FCEC17F001013F51626E6C50FCECC0
:1029680017F001013F516D6E9AEC1DF001014651BF
:1029780046250EEC1BF0010147510EEC1BF063508D
:102988000EEC1BF061500EEC1BF060500EEC1BF0CF
:102998000001F8510EEC1BF05D500EEC1BF062507C
:1029A8000EEC1BF06D500EEC1BF091EC1DF01200BC
:1029B80013AE17D011C017F012C018F013C019F0D9
:1029C800171E181E191E172A000E18221922000E8B
:1029D8001724116E000E1820126E800E1920136E27
:1029E80000D016AE17D014C017F015C018F016C0D6
:1029F80019F0171E181E191E172A000E1822192260
:102A0800000E1724146E000E1820156E800E192063
:102A1800166E00D0000E111A000E121A800E131A2C
:102A2800000E141A000E151A800E161A1450115C96
:102A38001550125816501358D8B002D0D89002D05A
:102A4800D88000D01200000E1C6E1AAE07D0196C88
:102A58001A1ED8B01A2A010E1C6E00D018AE07D064
:102A6800176C181ED8B0182A010E1C1A00D0000EB8
:102A78001E6E000E1D6E19501A10D8B421D0010E0A
:102A88001B6E05D0D89019361A361B2A00D01ABEEC
:102A980002D0F8D700D0D8901D361E361950175CD2
:102AA8001A501858D8A006D01950175E1A50185A3C
:102AB8001D8000D0D8901A3219321B2EECD700D0C6
:102AC8001C50D8B405D01D6C1E1ED8B01E2A00D0CC
:102AD8001DC017F01EC018F000D0120030D0682AB0
:102AE800180E6818D8A43FD0000E686E3CD0692A2A
:102AF8003C0E6918D8A437D0000E696E34D06B2A02
:102B08003C0E6B18D8A42FD0000E6B6E2CD06A2AFE
:102B18000D0E6A18D8A427D0010E6A6E24D0672A31
:102B2800200E6718D8A41FD0010E676E1CD06C2A1F
:102B3800640E6C18D8A417D0000E6C6E14D05750C1
:102B4800000AD8B4CCD7010AD8B4D1D7030AD8B46C
:102B5800D6D7010AD8B4DBD7070AD8B4E0D7010A18
:102B6800D8B4E5D700D015EC0AF012000600EACF79
:102B780006F0E1CF07F0E2CF08F0D9CF09F0DACFBD
:102B88000AF0F3CF0BF0F4CF0CF0F6CF0DF0F7CF3F
:102B98000EF0F8CF0FF0F5CF10F09EA003D0DAECCE
:102BA8001DF000D0F2A203D0E9EC0AF000D0F0A0AA
:102BB80003D0FBEC1DF000D0F0A203D0F6EC1DF022
:102BC80000D010C0F5FF0FC0F8FF0EC0F7FF0DC012
:102BD800F6FF0CC0F4FF0BC0F3FF0AC0DAFF09C010
:102BE800D9FF08C0E2FF07C0E1FF06C0EAFF05C041
:102BF800E9FF04C0FBFF03C0FAFF1100010E556E88
:102C08006EC0FAF015EC0FF032EC18F03AD049EC3F
:102C180016F0E806D8A435D0000E0001EC6F000EBF
:102C2800EB6F040E5F642AD0090E5F6027D011ECA9
:102C38001EF0040E5F18D8A403D009EC1DF000D0D4
:102C4800050E5F18D8A403D04FEC1DF000D0060E77
:102C58005F18D8A403D073EC1CF000D0070E5F18DF
:102C6800D8A403D072EC15F000D0080E5F18D8A4D1
:102C780003D0ACEC1DF000D05F6803D014EC1EF05C
:102C880000D05504D8B4C3D712000001EB050001E9
:102C9800EC11D8A43BD0000E0001EC6F000EEB6FD6
:102CA800F288F19C5F68000E3B6E000E3A6E3BBEE8
:102CB80008D03B501CE1150E3A5CD8B018D001D0B2
:102CC80016D01F0E3A24D96E010E3B20DA6E000191
:102CD800F351DE18D8A407D03AC05FF0000E3B6E5F
:102CE800150E3A6E00D03A4A3B2AE1D700D05F2849
:102CF800D8A409D0BA0E1D6EFE0E1E6EE7EC04F0C5
:102D080005D006D003D0010E03D000D0000E00D0AD
:102D18001200226E800E22603FD09F0E186401D0F0
:102D28003BD0FF0E1C6EFF0E1D6E195018C01EF012
:102D38001F6A1E26000E1F221C501E261D501F2211
:102D48001FBE0BD01F5004E1A00E1E5CD8A005D0FA
:102D580018500008A00F196E00D01B50206E1AC022
:102D680021F018C014F022C015F0185019241C6E58
:102D78001C04166E225023EC19F0818C819A07D01E
:102D8800205059EC1DF0215059EC1DF000D01906C7
:102D98001928D8A4F5D7818A120067EC18F05DC00D
:102DA80059F0680E0101466F070E0101476F645024
:102DB800FCEC17F001013F515A6E6550FCEC17F01E
:102DC80001013F515B6E6650FCEC17F001013F5169
:102DD8005C6E5C507F0B5C6E5B507F0B5B6E5A5079
:102DE8007F0B5A6E59508009596E9AEC1DF00101FB
:102DF800465146250EEC1BF0010147510EEC1BF025
:102E08005C500EEC1BF05B500EEC1BF05A500EECB5
:102E18001BF059500EEC1BF091EC1DF012003BEC2E
:102E28001CF011C03DF112C03EF1000E2F6E800E55
:102E3800306E440E316E3DC111F03EC112F0000EED
:102E4800146E050E136E27EC1CF011C019F012C099
:102E58001AF04CEC1BF019C02CF01AC02DF01BC056
:102E68002EF0F3EC10F02CC03BF02DC03CF02EC03F
:102E78003DF080EC10F03BC03FF13CC040F13FC159
:102E880019F040C11AF04CEC1BF019C0FBF01AC045
:102E9800FCF01BC0FDF000D0120000EEDAF0210EAD
:102EA800EE6AE806FDE100EE4AF0240EEE6AE80656
:102EB800FDE15A0EF66E360EF76E000EF86E01EE54
:102EC80000F010EE3DF00900F5CFEEFFE550E150BF
:102ED800FAE1EC0EF66E310EF76E000EF86E00EEAB
:102EE80080F010EE5AF00900F5CFEEFFE550E15002
:102EF800FAE12E0EF66E3C0EF76E000EF86E090023
:102F0800F5CF6EF0000EF86E000194EF06F0116E2A
:102F18001150D8A402D0839804D01104D8A403D0A7
:102F28008388839A06D0020E1118D8A404D08398F7
:102F380007D0839C24D0030E1118D8A403D083880B
:102F4800838AF7D7040E1118D8A402D0839805D025
:102F5800050E1118D8A403D08388839A06D0060ECC
:102F68001118D8A404D0839807D0838C08D0070EF2
:102F78001118D8A404D08388838AF7D700D0120008
:102F8800136E000EAC6E000EAB6E13A002D0AC88B0
:102F980000D013A203D0AC8CAB8C00D013A402D009
:102FA800AC8E00D013A602D0AB8802D0AB8A00D07A
:102FB80013B8AC849E9813AA02D0AB8600D013AC89
:102FC80002D09D8A01D09D9A9E9A13AE02D09D8808
:102FD80001D09D9811C0AFFF1250B06EAC8AAB8E75
:102FE800949C948EACB8ACBE02D0948C00D01200E5
:102FF8000101456F45C117F0186A000E1A6E0A0ED6
:10300800196E27EC15F017C041F118C042F1010103
:10301800413B423BF00E421741510F0B4213F00E59
:10302800411745C1FBF00001FC6B000E0001FE6F6B
:103038000A0EFD6F31EC14F00001FB51010141252E
:103048000101436F0001FC51010142210101446F5C
:1030580043C13FF144C140F100D01200FAC017F05B
:10306800186A000E1A6E640E196E27EC15F01750C8
:103078000001FB6F000E0001FC6F000E0001FD6FE8
:103088000001FB51300F0001BF6F0001FC51300FF0
:103098000001C06F0001FD51300F0001C16F4A0EE1
:1030A800396EBF0E3A6E000E3B6EF80E3D6E000E86
:1030B8003C6E000E3F6E000E3E6E020E406E280EF5
:1030C80064EC11F01200680E156E000E146E9AEC86
:1030D8001DF0155015240EEC1BF014500EEC1BF0CF
:1030E80044EC1DF0D88015340EEC1BF0010EACEC4E
:1030F8001AF0636E010EACEC1AF0616E010EACECC6
:103108001AF0606E010EACEC1AF00001F86F010EB7
:10311800ACEC1AF05D6E010EACEC1AF0626E000EAB
:10312800ACEC1AF06D6E91EC1DF0120063EC1DF022
:10313800D3EC1DF0700ED36E0E0EC16E110E926E92
:10314800070E936E010E946E000E956E000E966E2D
:10315800000E846E000E546EF19E000EB26E030EC9
:10316800B16EA00E116E860E126E010E136E000E59
:10317800146EE7EC1DF0C5EC1CF061EC1CF039ECAA
:103188001DF04B0E6E6E1200000E166E000E156EC0
:1031980013501410D8B421D0010E176E05D0D89052
:1031A80013361436172A00D014BE02D0F8D700D030
:1031B800D890153616361350115C14501258D8A0F2
:1031C80006D01350115E1450125A158000D0D890B2
:1031D80014321332172EECD700D015C011F016C0D8
:1031E80012F01200FF0130303A30303A30300030FF
:1031F800302F30302F30300030303A30303A3030E5
:103208000030312F30312F30300030303A30303A02
:10321800303000302E3030560030373546003030F0
:1032280030300030373546004F46460030303000E9
:103238004F4646002B3235002B3737003000176ECB
:103248002A0EC4EC1DF0000EBCEC1DF01750000156
:10325800F725BCEC1DF0000EBCEC1DF0155000016C
:10326800F725BCEC1DF02B0EC4EC1DF0000EBCECD9
:103278001DF014500001F925BCEC1DF0000EBCEC4B
:103288001DF016500001F925BCEC1DF02C0EC4EC05
:103298001DF01200680E1F6E0E0E1B6E0F0E1C6EB8
:1032A8001BC014F01F5088EC1BF01D6E1D50010947
:1032B8001D6E1BC013F01DC014F01F50A5EC1CF0B0
:1032C8001CC014F01F5088EC1BF01E6E1E50FE0B25
:1032D8001E6E1CC013F01EC014F01F50A5EC1CF08D
:1032E800D5EC13F01200680E1F6E0E0E1B6E0F0E3B
:1032F8001C6E1BC014F01F5088EC1BF01D6E1D5077
:10330800FE0B1D6E1BC013F01DC014F01F50A5EC62
:103318001CF01CC014F01F5088EC1BF01E6E1E50D1
:10332800FE0B1E6E1CC013F01EC014F01F50A5EC3F
:103338001CF0D5EC13F0120017C011F018C012F0F1
:10334800000E146E7D0E136E27EC1CF011C01BF0DE
:1033580012C01CF01BC019F01CC01AF0191E1A1E4E
:10336800194A1A2AFF0E19241B6EFF0E1A201C6E0A
:10337800030ED56E1BC0D6FF1C50D76EF294D58EA7
:1033880000D0F2A4FED7D59E120018D0642A180ED9
:103398006418D8A41ED0000E646E1BD0652A3C0E9B
:1033A8006518D8A416D0000E656E13D0662A3C0E98
:1033B8006618D8A40ED0000E666E0BD05650000AC0
:1033C800D8B4E4D7010AD8B4E9D7030AD8B4EED7F9
:1033D80000D007EC10F0120018D06450D8A403D025
:1033E800170E646E1DD064061BD06550D8A403D098
:1033F8003B0E656E15D0650613D06650D8A403D071
:103408003B0E666E0DD066060BD05650000AD8B437
:10341800E4D7010AD8B4E9D7030AD8B4EED700D064
:1034280007EC10F01200680E156E070E146E9AEC79
:103438001DF0155015240EEC1BF014500EEC1BF06B
:1034480044EC1DF0D88015340EEC1BF0010EACECEA
:103458001AF05C6E010EACEC1AF05B6E010EACEC6F
:103468001AF05A6E000EACEC1AF0596E91EC1DF081
:1034780012001A501B10D8B41DD0010E1C6E05D0B6
:10348800D8901A361B361C2A00D01BBE02D0F8D79B
:1034980000D01A50185C1B501958D8A005D01A50E3
:1034A800185E1B50195A00D0D8901B321A321C2EA5
:1034B800F0D700D018C018F019C019F012002B6E00
:1034C8002BC02CF02D6A0ED023C018F025C019F09F
:1034D80026C01AF027C01BF02C508DEC16F02C4A91
:1034E8002D2A00D024502BC028F0296A2826000E47
:1034F800292228502C5C2D50800A2A6E2950800AD7
:103508002A58D8A0E1D71200B2CF17F0186A000ED7
:103518001A6E020E196E27EC15F017C043F118C089
:1035280044F1000EB26E43C111F044C112F0000E16
:10353800146E3C0E136E27EC1CF011C0FEF012C086
:10354800FFF005D0320E5E6E5E5043EC12F01200B2
:10355800116E0DEC1EF0000E126E070E126401D0F3
:103568000FD0E1EC1DF083AE03D0D880133604D021
:1035780013501324136E00D009EC1EF0122AEDD755
:103588001150D8B403D0A3EC1DF003D0ECEC1DF01F
:1035980000D0135000D012002A0EC4EC1DF0000E0B
:1035A800BCEC1DF0000EBCEC1DF0000EBCEC1DF0D8
:1035B8007F0EBCEC1DF02B0EC4EC1DF0000EBCEC15
:1035C8001DF0000EBCEC1DF0000EBCEC1DF09F0EB3
:1035D800BCEC1DF0120011C015F012C016F003D09B
:1035E800154A162A00D015C0D9FF16C0DAFFDF50D9
:1035F800D8A4F6D711C013F012C014F0131E141E6D
:10360800134A142A15501324116E16501420126EE2
:1036180000D01200116E000E126E070E126401D057
:1036280011D011AE03D00DEC1EF003D0F1EC1DF05B
:1036380000D0E1EC1DF009EC1EF011501124116EC0
:10364800122AEBD70DEC1EF0E1EC1DF009EC1EF090
:10365800120020454345333330314C205370273214
:103668003220533420000000000000000000000059
:1036780000A262E22202C2E0A8906898B030187AEC
:1036880010385A424A5230303A30303A303000001E
:10369800000E1C6E1AAE07D0196C1A1ED8B01A2A62
:1036A800010E1C6E00D019C011F01AC012F0136A76
:1036B8008E0E146E1CC015F013EC13F011C019F027
:1036C80012C01AF013C01BF000D01200480E186E7A
:1036D800AA0E166E9AEC1DF0185018240EEC1BF06A
:1036E80016500EEC1BF044EC1DF0D88018340EEC8C
:1036F8001BF0000EACEC1AF0176E91EC1DF017C021
:1037080014F0156A00D01200166E9AEC1DF01650CF
:1037180016240EEC1BF014500EEC1BF044EC1DF0BC
:10372800D88016340EEC1BF0000EACEC1AF0156EB7
:1037380091EC1DF0155000D0120011C015F012C008
:1037480016F005D0154A162A134A142A00D013C0B9
:10375800F6FF14C0F7FF15C0D9FF16C0DAFF08003E
:10376800F5CFDFFFDF50D8A4EDD712001B6E800E17
:103778001B6013D09F0E186401D00FD018C014F02E
:103788001B28156E1828166E1B5023EC19F01A50BA
:10379800BCEC1DF01950BCEC1DF012004CC011F02F
:1037A8004DC012F06EC013F0146AE8EC1BF0115013
:1037B8005E6E5E5043EC12F05404D8A402D08088A8
:1037C80002D0809800D01200115000081324156E02
:1037D800D890153401D0000E5E6E00D0640E5E6481
:1037E80003D0640E5E6E00D05EC011F0126A00D085
:1037F8001200156E15C011F00F0E111615C012F03B
:10380800123A0F0E121612500A0D1150F324136EAD
:10381800000EF420146E135000D01200818A819C8F
:10382800800EC76E300EC66E05EC0DF0D0EC1AF0A7
:103838008EEC0FF0360EC4EC1DF0C00EBCEC1DF083
:10384800010E586E120011501302F3CF15F0F4CF89
:1038580016F011501402F350162612501302F350AA
:10386800162615C011F016C012F000D01200C28240
:1038780000D0C2B2FED7C450146E136AC3501324CA
:10388800156E000E1420166E15C011F016C012F039
:1038980000D012001C6E1C50116E126A136A8E0E34
:1038A800146E000E156E13EC13F011C019F012C04F
:1038B8001AF013C01BF000D01200F292F090F092B0
:1038C800F288F086F088F19CF19AF198000ECF6E9C
:1038D800000ECE6E9E909D80F28CF28E120008D063
:1038E8006850D8A403D0170E686E07D0680605D0B4
:1038F8005750000AD8B4F4D700D015EC0AF01200DB
:10390800136E000E126E3A0E136006D02F0E13645B
:1039180003D0010E126E00D012C011F0113000D089
:103928001200400E1D6EFF0E1E6EE7EC04F05404EC
:10393800D8A403D039EC1DF003D0D4EC1CF000D08F
:103948001200156E9AEC1DF0155015240EEC1BF0A4
:1039580013500EEC1BF014500EEC1BF091EC1DF004
:103968001200156E9AEC1DF0155015240EEC1BF084
:1039780013500EEC1BF014500EEC1BF091EC1DF0E4
:103988001200480E166EAC0E136E020E146E165010
:10399800B5EC1CF0EE0E136E1650F0EC1CF0120095
:1039A800600E1D6EFF0E1E6EE7EC04F0010E546EE5
:1039B8005E5043EC12F0808883861200000E186E69
:1039C800800E196EA00E1A6E24C01BF025C01CF0C4
:1039D800000ED5EC11F01200146E9AEC1DF0145084
:1039E80014240EEC1BF013500EEC1BF091EC1DF0A0
:1039F80012005750D8A403D0050E576E02D05706B0
:103A080000D0575064EC08F01200572A060E5718D9
:103A1800D8A403D0000E576E00D0575087EC07F09B
:103A280012005650D8A403D0020E566E02D0560685
:103A380000D0565064EC08F01200562A030E5618AF
:103A4800D8A403D0000E566E00D0565087EC07F06D
:103A58001200D1EC16F017EC1AF067EC18F027EC0E
:103A680003F0000E0001F16F1200500E1D6EFF0EE4
:103A78001E6EE7EC04F0000E546E809883961200D8
:103A880009EC1EF00DEC1EF0E1EC1DF0F1EC1DF060
:103A980009EC1EF012008BEC14F067EC18F027EC20
:103AA80003F0000E0001F26F1200126E9E96C9CF4D
:103AB80011F012C0C9FF00D0C7A0FED71200000E37
:103AC800126E190E116E3C0EC4EC17F0700ED36E08
:103AD8001200F90ECB6E050ECA6E4A0EBB6E3C0E76
:103AE800BA6E12008292000E186E640E176EA0EC69
:103AF80019F082821200F90ECB6E050ECA6E7C0E8A
:103B0800BB6E3C0EBA6E1200F90ECB6E070ECA6E73
:103B18007C0EBB6E3C0EBA6E120009EC1EF0F1EC86
:103B28001DF0E1EC1DF00DEC1EF012000DEC1EF086
:103B3800E1EC1DF0F1EC1DF009EC1EF01200F1ECC7
:103B48001DF0E1EC1DF009EC1EF00DEC1EF012006A
:103B580067EC18F027EC03F0000E0001F26F12007A
:103B680067EC18F027EC03F0000E0001F16F12006B
:103B7800136E819A818C135059EC1DF0818A1200C2
:103B8800136E819A819C135059EC1DF0818A1200A2
:103B9800116E00D0ACA2FED711C0ADFF1200010E0D
:103BA800C26E0E0EC16EA90EC06E1200000E00018C
:103BB800F46FF19CCD909E9012008188060EE82E3D
:103BC800FED700D01200E1EC1DF00DEC1EF0120043
:103BD800E1EC1DF009EC1EF01200839E839E00D0DC
:103BE80000D01200F092010E0001F06F1200F09068
:103BF800010E0001EF6F1200000E0001F46FCD906E
:103C08001200000EBA6E819612008198819800D039
:103C18001200838E00D000D012007FEC1DF012003D
:083C280088EC1DF012004B00B6
:10FC960000000000000000005F00000007000700F1
:10FCA600147F147F14242A7F2A12231308646236D1
:10FCB600495620500008070300001C22410000415D
:10FCC600221C002A1C7F1C2A08083E080800807097
:10FCD60030000808080808000060600020100804CA
:10FCE600023E5149453E00427F400072494949461D
:10FCF6002141494D331814127F1027454545393C9B
:10FD06004A49493141211109073649494936464987
:10FD160049291E00001400000040340000000814A9
:10FD26002241141414141400412214080201590922
:10FD3600063E415D594E7C1211127C7F4949493677
:10FD46003E414141227F4141413E7F494949417FF0
:10FD5600090909013E414151737F0808087F0041A6
:10FD66007F41002040413F017F081422417F4040EF
:10FD760040407F021C027F7F0408107F3E414141C4
:10FD86003E7F090909063E4151215E7F0919294630
:10FD9600264949493203017F01033F4040403F1F46
:10FDA6002040201F3F4038403F631408146303047B
:10FDB6007804036159494D43007F414141020408DB
:10FDC6001020004141417F040201020440404040AE
:10FDD60040000307080020545478407F28444438E4
:10FDE6003844444428384444287F3854545418002E
:10FDF600087E090218A4A49C787F080404780044AD
:10FE06007D40002040403D007F1028440000417F97
:10FE160040007C047804787C080404783844444420
:10FE260038FC1824241818242418FC7C0804040818
:10FE3600485454542404043F44243C4040207C1C31
:10FE46002040201C3C4030403C44281028444C9024
:10FE560090907C4464544C4400083641000000777E
:10FE660000000041360800020102040201000A00F7
:10FE76006400E8031027010010000001001025307F
:10FE860032783A253032783A2530327820253032A9
:10FE9600782F253032782F2530327800616C6172E8
:10FEA6006D203D20256420486561746572203D20E3
:10FEB6002564200043616E6E6F742066696E64204F
:10FEC600627574746F6E200D0A002054656D702083
:10FED6003D2025642043203D202564204620002027
:10FEE600454345333330314C20537027323220534B
:10FEF60078000052504D203D202564202064632068
:10FF06003D2025640D0A00454345333330314C20EE
:10FF1600537027323220537800303132333435363D
:10FF260037383961626364656600536574204865D5
:10FF3600617465722054656D700048656174657200
:10FF460020546F67676C65640A0046616E205475BD
:10FF5600726E6564204F66660A0046616E205475AF
:10FF6600726E6564204F6E0A0054656D706572612D
:10FF7600747572653A00485452205365742054656E
:10FF86006D700054696D65205365747570000020AE
:10FF96002048656174657200200025783A25783A14
:10FFA60025780D0A00416C61726D2054696D6500FB
:10FFB60020205365747570002000416C61726D20BD
:10FFC6005357002020416C61726D002020536574E8
:10FFD60075700048545220535700446174650056AA
:10FFE6006F6C74004F4E20004F46460052504D0035
:0AFFF600432F00444300524D000069
:020000040020DA
:08000000FFFFFFFFFFFFFFFF00
:020000040030CA
:0E000000FF08191EFF8281FF0FC00FE00F40A6
:00000001FF
